:100000000C942B040C9448040C9448040C9448045D
:100010000C9448040C9448040C9448040C94480430
:100020000C9448040C9448040C9448040C945B040D
:100030000C9448040C9448040C9448040C94480410
:100040000C9448040C9448040C9448040C94480400
:100050000C9448040C9448040C9448040C944804F0
:100060000C9448040C944804300A350A3A0A3F0AB2
:10007000440A490A4E0AD804F0040C052805440530
:10008000540564057005000000F804020202020233
:100090000204F80000000000001F204040404040E3
:1000A00040201F000000000000000020100804FE97
:1000B0000000000000000000000000000000007FC1
:1000C0000000000000000000000004020202020222
:1000D0000284780000000000000040605048444264
:1000E0004140400000000000000004020202828241
:1000F00082443800000000000000204040404040A2
:1001000040211E00000000000000FE000000000072
:1001100000FE0000000000000000010101010101DB
:10012000017F01000000000000007E424242424286
:100130004282020000000000000020404040404099
:1001400040201F000000000000F8048282828282AA
:100150008204080000000000001F21404040404091
:1001600040211E0000000000000002020202028284
:1001700042221E00000000000000000000007F007E
:100180000000000000000000003844828282828269
:100190008244380000000000001E214040404040E2
:1001A00040211E00000000000078840202020202CA
:1001B0000284F8000000000000002041414141415C
:1001C00041201F00000000000000000000000000AF
:1001D000005F000000000000030003000000002496
:1001E0007E247E240000004C92FF926400002715BC
:1001F0000B342A39000000225549323048000000F3
:10020000060000000000001C224100000000000069
:100210000041221C0000492A087F082A49000008E2
:10022000083E0808000000000060E0000000000830
:10023000080808080000000000606000000040207E
:10024000100804020100003E4149413E0000000444
:10025000027F000000000042615149460000002278
:10026000414949360000001814127F100000002791
:10027000454545390000003E494949320000000328
:10028000017109070000003649494936000000069F
:100290004949493E00000000666600000000000079
:1002A00066E60000000000000814220000000000C4
:1002B00014141414000000221408000000000002AE
:1002C0000151090600001C2249555E200000007CF7
:1002D00012127C000000007E4A4A34000000003CFC
:1002E000424224000000007E42423C000000007EAA
:1002F0004A4A42000000007E0A0A02000000003C58
:10030000426264000000007E08087E0000000000D9
:10031000427E420000000022423E02000000007EB9
:10032000182442000000007E404040000000007E93
:100330000418047E0000007E08107E000000003CCF
:1003400042423C000000007E12120C000000003C03
:1003500042627C800000007E12324C0000000024CB
:100360004A52240000000002027E02020000003E09
:100370004040403E0000001E2040201E0000003E85
:100380004030403E00000042241824420000000695
:100390000870080600000062524A46000000007E15
:1003A000424200000000000006186000000000004B
:1003B00042427E00000000040201020400000040EE
:1003C0004040400000000000020400000000003037
:1003D0004A4A3C400000007E484830000000003897
:1003E000444428000000003048487E0000000038E7
:1003F00054541800000000107C1204000000001883
:10040000A4A45A000000007E08087000000000004C
:100410007A0000000000000040807A000000007EAA
:100420003048000000000000007E0000000000785E
:1004300008700870000000780808700000000030A4
:1004400048483000000000F824241800000000187C
:100450002424F8000000007C080408000000004884
:1004600054240000000000083E482000000000382E
:10047000404078000000003840201800000000389C
:10048000403840380000004428102844000000187C
:10049000A0A058000000004464544C440000000038
:1004A000106C820000000000007E000000000000D0
:1004B000826C100000001008081010080000003CBA
:1004C00024243C000000003C24243C000000003CAC
:1004D00024243C000000003C24243C000000003C9C
:1004E00024243C000000003C24243C000000003C8C
:1004F00024243C000000003C24243C000000003C7C
:1005000024243C000000003C24243C000000003C6B
:1005100024243C000000003C24243C000000003C5B
:1005200024243C000000003C24243C000000003C4B
:1005300024243C000000003C24243C000000003C3B
:1005400024243C000000003C24243C000000003C2B
:1005500024243C000000003C24243C000000003C1B
:1005600024243C000000003C24243C000000003C0B
:1005700024243C000000003C24243C000000003CFB
:1005800024243C000000003C24243C000000003CEB
:1005900024243C000000003C24243C000000003CDB
:1005A00024243C000000003C24243C000000003CCB
:1005B00024243C000000003C24243C000000003CBB
:1005C00024243C000000007D545445000000003C01
:1005D00024243C000000003C24243C000000003C9B
:1005E00024243C000000003C24243C000000003C8B
:1005F00024243C000000003C24243C000000003C7B
:1006000024243C000000003C24243C000000003C6A
:1006100024243C000000003C24243C000000003C5A
:1006200024243C000000003C24243C000000003C4A
:1006300024243C000000003C24243C000000003C3A
:1006400024243C000000007C12127C000000007E8C
:100650004A4A32000000007E4A4A34000000007E10
:10066000020202000000603C22223C600000007E8A
:100670004A4A420000000076087E08760000002406
:10068000424A34000000007E10087E000000007C1A
:1006900021117C000000007E182442000000007838
:1006A00004027E000000007E0408047E0000007E3C
:1006B00010107E000000003C42423C000000007E22
:1006C00002027E000000007E12120C000000003CBE
:1006D0004242240000000002027E020200000006E6
:1006E000484836000000000C127E120C0000002268
:1006F000140814220000003E20203E600000000E7E
:1007000010107E000000007E407C407E0000007ED5
:10071000407C407EC00000027E4848300000007EE1
:100720004830007E000000007E4848300000002471
:10073000424A3C000000007E083C423C0000004C65
:1007400032127E000000003048483840000000307F
:100750004B4D39000000003854280000000000789C
:1007600008080000000000304A4C38000000003843
:1007700054545800000000782078207800000000D1
:100780004454280000000038404078000000003841
:1007900042427800000000781068000000000070FD
:1007A0000878000000000078102010780000007821
:1007B0001078000000000030484830000000007849
:1007C00008087000000000F8282810000000003021
:1007D0004848000000000078087808700000000811
:1007E000502018000000001028F8281000000048D1
:1007F000303048000000003C20203C600000001821
:1008000020207800000000784070407800000078D8
:1008100040704078C0000008785020000000007848
:1008200050200078000000007850200000000000F8
:10083000445438000000007C1038443800000000A8
:100840000048347C0000007E04087E242A240038FE
:1008500055541900000011241FBECFEFD8E0DEBFB1
:10086000CDBF11E0A0E0B1E0EAEBF4E102C00590F9
:100870000D92A234B107D9F721E0A2E4B1E001C0A2
:100880001D92A936B207E1F70E94B6090C945B0AE3
:100890000C94000084B1887F84B985B1876085B9E4
:1008A00080E00895F89490916201892398279093AD
:1008B0006201789408951F920F920FB60F9211243F
:1008C0002F933F934F938F939F9395B180E2892706
:1008D00085B983B143B193B130916301282F217061
:1008E000842F8270822B9470892B8095282F232748
:1008F000909143019223892F809580934301909199
:100900004201922398279093420182238923932FB7
:10091000982790936301892390916201892B80939A
:1009200062019F918F914F913F912F910F900FBE38
:100930000F901F90189587E092E090938900809324
:100940008800EFE6F0E0808182608083E1E8F0E0FB
:1009500080818D608083E0E8F0E080818068808322
:100960007894259A0895CF9381ED0E947E08C82F30
:10097000882321F00E949209C1E002C00E949209DE
:100980008C2FCF9108950F931F93CF938C0180EDFF
:100990000E947E08C82F882311F0C1E0FEC00830F5
:1009A000110508F0FAC0F801E55CFF4F0C94550AF8
:1009B00080E00E94A0080E94920981ED0E947E08BA
:1009C000C82F8111EACF0E94B10880934E010E9486
:1009D000B10880934F010E94B10880935001DBC0A1
:1009E00083E00E94A0080E94920981ED0E947E0887
:1009F000C82F8111D2CF0E94B108809351010E946B
:100A0000B108809352010E94B108809353010E9463
:100A1000B10880935401BFC087E00E94A0080E94E3
:100A2000920981ED0E947E08C82F8111B6CF0E94E5
:100A3000B108809355010E94B108809356010E942D
:100A4000B108809357010E94B10880935801A3C058
:100A50008BE00E94A0080E94920981ED0E947E080E
:100A6000C82F81119ACF0E94B108809359010E942A
:100A7000B10880935A010E94B10880935B010E94E3
:100A8000B10880935C0187C08EE00E94A0080E949C
:100A9000920981ED0E947E08C82F81117ECF0E94AD
:100AA000B10880935D0177C08FE00E94A0080E948A
:100AB000920981ED0E947E08C82F81116ECF0E949D
:100AC000B10880935E0167C081E10E94A0080E9486
:100AD000920981ED0E947E08C82F81115ECF53C01C
:100AE00080E00E94A0080E94920981ED0E947E0889
:100AF000C82F811152CF0E94B10880934E010E94ED
:100B0000B10880934F010E94B108809350010E9468
:100B1000B108809351010E94B108809352010E9454
:100B2000B108809353010E94B108809354010E9440
:100B3000B108809355010E94B108809356010E942C
:100B4000B108809357010E94B108809358010E9418
:100B5000B108809359010E94B10880935A010E9404
:100B6000B10880935B010E94B10880935C010E94F0
:100B7000B10880935D010E94B10880935E010E94DC
:100B8000B10880935F010E94B108809360010E94C8
:100B9000B108809361010E9492098C2FCF911F911F
:100BA0000F910895CF93DF9380ED0E947E0880E03F
:100BB0000E94A008CEE4D1E088810E94A00889812B
:100BC0000E94A0088A810E94A0080E94920980E0E9
:100BD000DF91CF91089588E70E947E0880E00E940F
:100BE000A0088EEA0E94A00885ED0E94A00880E877
:100BF0000E94A00888EA0E94A0088FE30E94A00833
:100C000083ED0E94A00880E00E94A00880E40E947A
:100C1000A0088DE80E94A00884E10E94A00880E25C
:100C20000E94A00882E00E94A00881EA0E94A00819
:100C300088EC0E94A0088AED0E94A00882E10E9430
:100C4000A00881E80E94A00880E00E94A00889ED29
:100C50000E94A00881EF0E94A0088BED0E94A008CE
:100C600080E40E94A0088EE20E94A00884EA0E940C
:100C7000A00886EA0E94A0088FEA0E94A0080C94AF
:100C80009209CF93DF93C0EB88E70E947E0880E053
:100C90000E94A00880E10E94A00882E00E94A008B3
:100CA0008C2F0E94A0080E94920988E70E947E086B
:100CB00080E40E94A008D0E080E00E94A008DF5FEE
:100CC000D038D1F70E949209CF5FC83BE9F6DF9197
:100CD000CF910895CF92DF92EF92FF920F931F93DF
:100CE000CF93DF93C82FD62FD42EE52EF22E88E790
:100CF0000E947E0880E00E94A00880E20E94A00876
:100D000082E00E94A0088C2F8F700E94A0088C2F78
:100D100082958F7080610E94A008D83018F48D2FC2
:100D2000806B01C080EB0E94A0080E94920988E7B6
:100D30000E947E0880E40E94A0080D2D1E2D6801EF
:100D4000CF0CD11CC016D106F1F0F801C1918F0172
:100D50000C2E000CDD0BA09783E0CC0FDD1F8A95D5
:100D6000E1F7E12CF12CFE01EE0DFF1DEA53FE4FE1
:100D700084910E94A008FFEFEF1AFF0A86E0E816B0
:100D8000F10489F7DFCFDF91CF911F910F91FF9091
:100D9000EF90DF90CF900C949209BF92CF92DF92A8
:100DA000EF92FF920F931F93CF93DF93C82FD62F0D
:100DB0007A0188E70E947E0880E00E94A00880E215
:100DC0000E94A00882E00E94A0088C2F8F70B82E8D
:100DD0000E94A008C295CF70C0618C2F0E94A0080D
:100DE000D73018F48D2F806B01C080EB0E94A008D3
:100DF0000E94920988E70E947E0880E40E94A00871
:100E0000F7010081002E000C110B0053110995E031
:100E1000000F111F9A95E1F7C12CD12CF801EC0DB0
:100E2000FD1DEA57FF4F84910E94A008FFEFCF1AE3
:100E3000DF0A8DE0C816D10489F7F7010181002E81
:100E4000000C110B0053110985E0000F111F8A954A
:100E5000E1F7C12CD12CF801EC0DFD1DEA57FF4F35
:100E600084910E94A008FFEFCF1ADF0A8DE0C81618
:100E7000D10489F70E94920988E70E947E0880E0E9
:100E80000E94A00880E20E94A00882E00E94A008C0
:100E90008B2D0E94A0088C2F0E94A008D73020F430
:100EA00081E08D0F806B01C081EB0E94A0080E9441
:100EB000920988E70E947E0880E40E94A008F7015A
:100EC000C081F0E2CF02E001112400E010E0C05F39
:100ED000D540FE01E00FF11FEA57FF4F84910E94B9
:100EE000A0080F5F1F4F0D30110599F7F701C18161
:100EF000F0E2CF02E001112400E010E0C05FD54035
:100F0000FE01E00FF11FEA57FF4F84910E94A008F5
:100F10000F5F1F4F0D30110599F7DF91CF911F9192
:100F20000F91FF90EF90DF90CF90BF900C949209BB
:100F3000CF93DF9323E14DE251E060E08AE00E942D
:100F40006A0680E090E00E94C304CEE4D1E08A818A
:100F5000E8E4F1E0982F92959F70905D90838F70F8
:100F6000805D8183AF0163E08AE00E94CD068981C4
:100F7000E6E4F1E0982F92959F70905D90838F70DA
:100F8000805D8183AF0163E082E30E94CD068881AA
:100F9000E4E4F1E0982F92959F70905D90838F70BC
:100FA000805D8183AF0163E08AE50E94CD061092E7
:100FB00065011092640180E0DF91CF910895CF9395
:100FC000DF9328E044E251E061E08EE10E946A068E
:100FD00081E090E09093650180936401CEE4D1E0DC
:100FE0008A81E8E4F1E0982F92959F70905D90835C
:100FF0008F70805D8183AF0163E08AE00E94CD063F
:101000008981E6E4F1E0982F92959F70905D90833E
:101010008F70805D8183AF0163E082E30E94CD0623
:101020008881E4E4F1E0982F92959F70905D908321
:101030008F70805D8183AF0163E08AE50E94CD06F9
:1010400080E0DF91CF910895CF93DF93EC01613081
:10105000710559F020F06230710539F011C08881B6
:101060000E94AD09873130F007C088810E94AD0928
:101070008B3310F48F5F01C080E00E949609888353
:1010800080915001982F92959F70905D90934801A8
:101090008F70805D8093490148E451E063E08AE00D
:1010A0000E94CD0680914F01982F92959F70905D80
:1010B000909346018F70805D8093470146E451E034
:1010C00063E082E30E94CD0680914E01982F9295B5
:1010D0009F70905D909344018F70805D8093450177
:1010E00044E451E063E08AE50E94CD0680E0DF91B0
:1010F000CF9108958CE08093B80008951092BC00C1
:1011000094EA9093BC009091BC0097FFFCCF909123
:10111000B900987F983011F081E008958093BB006A
:1011200084E88093BC008091BC0087FFFCCF809155
:10113000B900887F883111F0803471F780E008951C
:101140008093BB0084E88093BC008091BC0087FF43
:10115000FCCF9091B900987F81E0983209F480E04B
:10116000089584EC8093BC008091BC0087FFFCCF85
:101170008091BB00089584E88093BC008091BC00FE
:1011800087FFFCCF8091BB000895DF92EF92FF9222
:101190000F931F93CF93DF93D62E072F7A010E94D0
:1011A0007E08182F81110CC0CD2DD02FEC0EFD1E06
:1011B000CE15DF0539F089910E94A0088823C1F37C
:1011C00011E003C084E98093BC00812FDF91CF91AF
:1011D0001F910F91FF90EF90DF900895AF92BF9213
:1011E000CF92DF92FF920F931F93CF93DF936B0108
:1011F0008A0181600E947E08F82E811118C0560174
:10120000E8012197C5018C199D098C179D0730F4C1
:101210000E94B108F50181935F01F4CFCC0DDD1D73
:101220000E94BB08888384E98093BC0002C0FF242D
:10123000F3948F2DDF91CF911F910F91FF90DF904D
:10124000CF90BF90AF900895DF92EF92FF920F93EF
:101250001F93CF93DF93C62FD42E052F79010E94C1
:101260007E08182F882311F011E013C08C2F0E94E4
:10127000A008CD2DD02FEC0EFD1ECE15DF0531F0D0
:1012800089910E94A0088823C1F3EECF84E980935E
:10129000BC00812FDF91CF911F910F91FF90EF90B4
:1012A000DF900895AF92BF92CF92DF92FF920F939B
:1012B0001F93CF93DF93C82FD62F6A0189010E9415
:1012C0007E08882319F0FF24F39421C08D2F0E94FB
:1012D000A0088C2F81600E947E08F82E8111F3CF28
:1012E0005601E8012197C5018C199D098C179D07AE
:1012F00030F40E94B108F50181935F01F4CFCC0D69
:10130000DD1D0E94BB08888384E98093BC008F2D7B
:10131000DF91CF911F910F91FF90DF90CF90BF9001
:10132000AF90089584E98093BC00089590E048E070
:101330009C0122273F70232F33272530310538F0B9
:10134000907F2D5F3F4F322F2227822B932B880FC8
:10135000991F415069F7892F0895982F92959F7092
:101360008F702AE0929F800D112408950E947A08C0
:1013700087E090E00E94C3040E94EB050E944106B2
:101380000E944A040E949B047894C8E9D7E00FEDBC
:1013900017E0F0906401FF2021F081E0F81679F069
:1013A000FACF82E00E9452048823B1F00E944106E5
:1013B00010934D0100934C010E94DF07EACF82E0B9
:1013C0000E945204882379F0109264011092660101
:1013D0000E9441060E94D205D0934D01C0934C015A
:1013E0000E949807D6CF84E00E9452048823D1F04F
:1013F000F09264010E9441062CE040E051E060E080
:1014000083E00E946A0680916601863038F010926F
:101410006601109264010E944106DECF8F5F8093C7
:101420006601B7CF81E00E945204882309F4B1CF4E
:10143000F09264010E9441062CE04DE051E060E032
:1014400083E00E946A06E09166018E2F90E087306B
:10145000910508F09ECFFC01EC5CFF4F0C94550AFF
:1014600060E070E080E591E01DC061E070E08FE435
:1014700091E018C062E070E08EE491E013C063E098
:1014800070E082E591E00EC064E070E083E591E0F9
:1014900009C065E070E084E591E004C066E070E0BA
:1014A00081E591E00E94240874CFEE0FFF1F0590A4
:0A14B000F491E02D0994F894FFCFA9
:1014BA00427574746F6E204D494E555300427574CF
:1014CA00746F6E20504C55532000427574746F6EC1
:1014DA00204F4B0053455454494E475300544F44F0
:1014EA004159204953204120474F4F4420444159F4
:0214FA000000F0
:00000001FF
